:020000040800F2
:10000000000001209D190008191800081B1800089D
:100010001D1800081F180008211800080000000023
:10002000000000000000000000000000231800088D
:1000300025180008000000002718000829180008EB
:10004000E5190008E5190008E5190008E519000898
:10005000E5190008E5190008E5190008E519000888
:10006000E5190008E5190008E5190008E519000878
:10007000E5190008E5190008E5190008E519000868
:10008000E5190008E5190008E5190008E519000858
:10009000E5190008E5190008E5190008E519000848
:1000A000E5190008E5190008E5190008E519000838
:1000B000E5190008E5190008E5190008E519000828
:1000C000E5190008E5190008E5190008E519000818
:1000D000E5190008E1180008311800088518000823
:1000E000E5190008E5190008E5190008E5190008F8
:1000F000E5190008E5190008E5190008E5190008E8
:10010000E5190008E5190008E5190008E5190008D7
:10011000E51900083D190008E5190008E51900086F
:10012000E5190008E5190008E5190008E5190008B7
:1001300000000000000000000000000000000000BF
:1001400000000000000000000000000000000000AF
:10015000000000000000000000000000000000009F
:10016000000000000000000000000000000000008F
:10017000000000000000000000000000000000007F
:10018000000000000000000000000000000000006F
:10019000000000000000000000000000000000005F
:1001A000000000000000000000000000000000004F
:1001B000000000000000000000000000000000003F
:1001C000000000000000000000000000000000002F
:1001D000000000000000000000000000000000001F
:0401E0005FF8E0F1F3
:1001E80010B5054C237833B9044B13B10448AFF369
:1001F80000800123237010BD3C0400200000000093
:100208000CE5000808B5034B1BB103490348AFF3DD
:10021800008008BD00000000400400200CE5000834
:1002280081F0004102E000BF83F0004330B54FEA9F
:1002380041044FEA430594EA050F08BF90EA020F0C
:100248001FBF54EA000C55EA020C7FEA645C7FEA9F
:10025800655C00F0E2804FEA5454D4EB5555B8BFC2
:100268006D420CDD2C4480EA020281EA030382EA33
:10027800000083EA010180EA020281EA0303362DC5
:1002880088BF30BD11F0004F4FEA01314FF4801C98
:100298004CEA113102D0404261EB410113F0004FAA
:1002A8004FEA03334CEA133302D0524263EB430361
:1002B80094EA050F00F0A780A4F10104D5F1200EFF
:1002C8000DDB02FA0EFC22FA05F2801841F100015A
:1002D80003FA0EF2801843FA05F359410EE0A5F12E
:1002E80020050EF1200E012A03FA0EFC28BF4CF05F
:1002F800020C43FA05F3C01851EBE37101F0004515
:1003080007D54FF0000EDCF1000C7EEB00006EEB21
:100318000101B1F5801F1BD3B1F5001F0CD34908AB
:100328005FEA30004FEA3C0C04F101044FEA445202
:1003380012F5800F80F09A80BCF1004F08BF5FEA89
:10034800500C50F1000041EB045141EA050130BD69
:100358005FEA4C0C404141EB0101013C28BFB1F57B
:10036800801FE9D291F0000F04BF01460020B1FAC6
:1003780081F308BF2033A3F10B03B3F120020CDA99
:100388000C3208DD02F1140CC2F10C0201FA0CF077
:1003980021FA02F10CE002F11402D8BFC2F1200CDC
:1003A80001FA02F120FA0CFCDCBF41EA0C01904092
:1003B800E41AA2BF01EB0451294330BD6FEA0404DB
:1003C8001F3C1CDA0C340EDC04F11404C4F12002C6
:1003D80020FA04F001FA02F340EA030021FA04F3D8
:1003E80045EA030130BDC4F10C04C4F1200220FA2F
:1003F80002F001FA04F340EA0300294630BD21FA6D
:1004080004F0294630BD94F0000F83F4801306BF32
:1004180081F480110134013D4EE77FEA645C18BF26
:100428007FEA655C29D094EA050F08BF90EA020FBD
:1004380005D054EA000C04BF1946104630BD91EAB5
:10044800030F1EBF0021002030BD5FEA545C05D1B8
:100458004000494128BF41F0004130BD14F58004F7
:100468003CBF01F5801130BD01F0004545F0FE416B
:1004780041F470014FF0000030BD7FEA645C1ABFA0
:10048800194610467FEA655C1CBF0B46024650EAD7
:10049800013406BF52EA033591EA030F41F4002103
:1004A80030BD00BF90F0000F04BF0021704730B589
:1004B8004FF4806404F132044FF000054FF000015E
:1004C80050E700BF90F0000F04BF0021704730B51F
:1004D8004FF4806404F1320410F0004548BF4042F4
:1004E8004FF000013EE700BF42004FEAE2014FEA49
:1004F80031014FEA02701FBF12F07F4393F07F4F24
:1005080081F06051704732F07F4208BF704793F026
:100518007F4F04BF41F40021704730B54FF4607439
:1005280001F0004521F000411CE700BF50EA01023C
:1005380008BF704730B54FF000050AE050EA0102E5
:1005480008BF704730B511F0004502D5404261EB55
:1005580041014FF4806404F132045FEA915C3FF496
:10056800D8AE4FF003025FEADC0C18BF03325FEA33
:10057800DC0C18BF033202EBDC02C2F1200300FAE4
:1005880003FC20FA02F001FA03FE40EA0E0021FA09
:1005980002F11444BDE600BF70B54FF0FF0C4CF4F7
:1005A800E06C1CEA11541DBF1CEA135594EA0C0FA9
:1005B80095EA0C0F00F0DEF82C4481EA030621EAE4
:1005C8004C5123EA4C5350EA013518BF52EA03351F
:1005D80041F4801143F4801338D0A0FB02CE4FF0D1
:1005E8000005E1FB02E506F00042E0FB03E54FF001
:1005F8000006E1FB03569CF0000F18BF4EF0010EF9
:10060800A4F1FF04B6F5007F64F5407404D25FEAF4
:100618004E0E6D4146EB060642EAC62141EA5551A7
:100628004FEAC52040EA5E504FEACE2EB4F1FD0CE9
:1006380088BFBCF5E06F1ED8BEF1004F08BF5FEA67
:10064800500E50F1000041EB045170BD06F0004619
:1006580046EA010140EA020081EA0301B4EB5C04C6
:10066800C2BFD4EB0C0541EA045170BD41F48011BE
:100678004FF0000E013C00F3AB8014F1360FDEBFE3
:10068800002001F0004170BDC4F10004203C35DABF
:100698000C341BDC04F11404C4F1200500FA05F342
:1006A80020FA04F001FA05F240EA020001F00042E3
:1006B80021F0004110EBD37021FA04F642EB060159
:1006C8005EEA430E08BF20EAD37070BDC4F10C0483
:1006D800C4F1200500FA04F320FA05F001FA04F247
:1006E80040EA020001F0004110EBD37041F1000133
:1006F8005EEA430E08BF20EAD37070BDC4F120053E
:1007080000FA05F24EEA020E20FA04F301FA05F2A5
:1007180043EA020321FA04F001F0004121FA04F24D
:1007280020EA020000EBD3705EEA430E08BF20EA1D
:10073800D37070BD94F0000F0FD101F00046400057
:1007480041EB010111F4801F08BF013CF7D041EAD9
:10075800060195F0000F18BF704703F000465200DD
:1007680043EB030313F4801F08BF013DF7D043EAAE
:100778000603704794EA0C0F0CEA135518BF95EA64
:100788000C0F0CD050EA410618BF52EA4306D1D1EB
:1007980081EA030101F000414FF0000070BD50EA0A
:1007A800410606BF1046194652EA430619D094EA94
:1007B8000C0F02D150EA013613D195EA0C0F05D17E
:1007C80052EA03361CBF104619460AD181EA0301D2
:1007D80001F0004141F0FE4141F470014FF000008A
:1007E80070BD41F0FE4141F4780170BD70B54FF025
:1007F800FF0C4CF4E06C1CEA11541DBF1CEA1355A5
:1008080094EA0C0F95EA0C0F00F0A7F8A4EB050486
:1008180081EA030E52EA03354FEA013100F088807D
:100828004FEA03334FF0805545EA131343EA126346
:100838004FEA022245EA111545EA10654FEA0026FB
:100848000EF000419D4208BF964244F1FD0404F5B4
:10085800407402D25B084FEA3202B61A65EB030510
:100868005B084FEA32024FF480104FF4002CB6EBCD
:10087800020E75EB030E22BFB61A754640EA0C004D
:100888005B084FEA3202B6EB020E75EB030E22BF8D
:10089800B61A754640EA5C005B084FEA3202B6EBCE
:1008A800020E75EB030E22BFB61A754640EA9C008D
:1008B8005B084FEA3202B6EB020E75EB030E22BF5D
:1008C800B61A754640EADC0055EA060E18D04FEA1B
:1008D800051545EA16754FEA06164FEAC30343EABB
:1008E80052734FEAC2025FEA1C1CC0D111F4801F88
:1008F8000BD141EA00014FF000004FF0004CB6E781
:1009080011F4801F04BF01430020B4F1FD0C88BF1F
:10091800BCF5E06F3FF6AFAEB5EB030C04BFB6EB2A
:10092800020C5FEA500C50F1000041EB045170BD1D
:100938000EF0004E4EEA113114EB5C04C2BFD4EB4A
:100948000C0541EA045170BD41F480114FF0000ECE
:10095800013C90E645EA060E8DE60CEA135594EA4A
:100968000C0F08BF95EA0C0F3FF43BAF94EA0C0F4D
:100978000AD150EA01347FF434AF95EA0C0F7FF4C2
:1009880025AF104619462CE795EA0C0F06D152EA16
:1009980003353FF4FDAE1046194622E750EA4106FA
:1009A80018BF52EA43067FF4C5AE50EA41047FF40B
:1009B8000DAF52EA43057FF4EBAE12E784B0134B58
:1009C8009A6942F004029A619A6902F0040200925C
:1009D800009A9A6942F008029A619A6902F008023C
:1009E8000192019A9A6942F010029A619A6902F09A
:1009F80010020292029A9A6942F020029A619B6957
:100A080003F020030393039B04B0704700100240D7
:100A180072B6FEE708B50A480A4B03604FF416534E
:100A2800436000238360C36003610C2242618361D9
:100A3800C36101F091FE00B908BDFFF7E9FF00BFEF
:100A48009C0400200038014008B50A480A4B03609E
:100A58004FF41653436000238360C36003610C2284
:100A680042618361C36101F077FE00B908BDFFF7F9
:100A7800CFFF00BF580400200044004008B50A48D2
:100A88000A4B03604FF41653436000238360C3602E
:100A980003610C2242618361C36101F05DFE00B90C
:100AA80008BDFFF7B5FF00BF24050020004800403F
:100AB80008B50A480A4B03604FF4165343600023F5
:100AC8008360C36003610C2242618361C36101F0EA
:100AD80043FE00B908BDFFF79BFF00BFE0040020FC
:100AE8000050004000B591B02822002106A80DF062
:100AF80047FC002301930293039304930593022375
:100B0800069301230A9310230B9306A801F03EFADB
:100B180068B90F2301930021029103910491059173
:100B280001A801F073FC20B911B05DF804FBFFF7D0
:100B38006FFFFFF76DFF00002DE9F04FF1B000F0F7
:100B480075FFFFF7CFFFFFF739FFFFF763FFFFF7E9
:100B58007BFFFFF793FFFFF7ABFF744E4FF0FF33B8
:100B680010227349304601F026FE00252F95714C5E
:100B780023681A682F925A682F922F9ADA6842F0DF
:100B88003002DA6064226C49204602F06EF8309533
:100B980033681A6830925A683092309ADA6842F0AC
:100BA8003002DA6064226549304602F05EF8319519
:100BB800634D2B681A6831925A683192319ADA6813
:100BC80042F03002DA6064225E49284602F04DF8AD
:100BD8002946204602F066F85B4B30221A8000F066
:100BE80011BC03F0AAFA00F00DBC03F0DFFD00F021
:100BF80009BC07F036FE00F005BC08F07BF900F0F0
:100C080001BC05F0C1FFFDE304F00DF9FAE302F0C1
:100C18005CFFF7E302F020FCF4E30AF0EBF9F1E300
:100C28000320009002230122002102F09DF8464B88
:100C380000221A80E6E306230093052304220021FC
:100C4800032002F091F8404B00221A80DAE30C23CB
:100C580000930B230A220021032002F085F83A4B67
:100C680000221A80CEE312230093112310220021C0
:100C7800032002F079F8344B00221A80C2E30923DA
:100C88000093082307220021032002F06DF82E4B61
:100C980000221A80B6E30F2300930E230D220021B1
:100CA800032002F061F8284B00221A80AAE31422DC
:100CB8001321022002F058F8234B00221A80A1E3E6
:100CC8001E221D21022002F04FF81F4B00221A801D
:100CD80098E31C221B21022002F046F81A4B00223E
:100CE8001A808FE316221521022002F03DF8164BD8
:100CF80000221A8086E318221721022002F034F815
:100D0800114B00221A807DE31A221921022002F0D9
:100D18002BF80D4B00221A8074E30CF09CF871E359
:100D28000BF081FA6EE30AF060FB6BE358040020D5
:100D380024E500089C04002038070020A4050020B2
:100D4800E0040020C8080020340700200AF0B5F9A4
:100D580040F243330F934FF00C0ACDF838A040F21D
:100D6800F1130D934FF00B09CDF830904FF4FA7B47
:100D7800CDF82CB04FF00A08CDF82880002309934D
:100D88000924089440F23F230793082706974FF455
:100D9800F77505950723049340F23E330393032622
:100DA800029640F221230193022200924FF4F47339
:100DB80001224FF47A71204601F07EFF4FF47A70D9
:100DC80000F058FE40F24F130F93CDF838A07A2365
:100DD8000D93CDF83090CDF82CB0CDF828804FF495
:100DE800F5730993089440F2B6330793069705956F
:100DF800072304934FF4A57303930296AA23019340
:100E0800022200924FF4F47301224FF47A712046C3
:100E180001F052FF4FF47A7000F02CFE4FF43E734D
:100E28000F9312250E9540F23A230D9311220C923E
:100E38004FF4F8730B9310210A9140F23933099358
:100E48000F2008904FF4077307934FF00E0CCDF85E
:100E580018C04FF4DA7305934FF00D0ECDF810E07B
:100E680040F2F32303934FF0060BCDF808B040F29D
:100E7800052301934FF0050BCDF800B04FF4F47340
:100E880004224FF4C871204601F016FF4FF4C870D1
:100E980000F0F0FD0F9511220E9210210D910F20F8
:100EA8000C904FF00E0CCDF82CC04FF00D0ECDF875
:100EB80028E0CDF824A0CDF82090CDF81C80069429
:100EC80005970723049306230393CDF808B004235A
:100ED80001930096022301220021284601F044FFD5
:100EE80090E20AF026F88DE209F0C0FF8AE24FF49A
:100EF800497315931A23149340F2C6331393192395
:100F0800129340F23B131193182310930D230F9360
:100F180017220E924FF453720D9216220C9240F241
:100F280076320B9215220A9240F219320992102257
:100F3800089240F2DD220792069340F2113305939E
:100F48000423049340F20A3303930123029340F2EB
:100F58001D3301930A23009340F2173307224FF4FD
:100F6800FA710C2001F0A8FE4FF4FA7000F082FD2F
:100F78004FF4087309931E23089340F2194307930B
:100F88001D2306934FF4307305931C23049340F2FA
:100F9800F63303931B23029340F22933019314235E
:100FA80000934FF4767313224FF4FA71062001F080
:100FB80083FE4FF4FA7000F05DFD23E209F016F9A4
:100FC80020E208F0D7FA1DE20BF0DAFC0AF012F87A
:100FD80018E2122403944FF00F09CDF808900C235F
:100FE800019309220092062303220021184601F0EA
:100FF800BBFE4FF449732D931A232C9340F26B33A5
:101008002B9319232A9340F23B13299318202890F5
:1010180069232793172326934FF453732593162395
:10102800249340F21B332393152322934FF4087320
:1010380021931E23209340F2B1331F931D231E9347
:101048004FF430731D931C231C9340F28E331B9373
:101058001B231A9340F229331993142318934FF43E
:101068005C7317931323169340F24E2315934FF096
:10107800110BCDF850B04FF4F87313934FF0100ADA
:10108800CDF848A04FF40C7311930E2110914FF432
:10109800DA730F930D250E9540F219230D9305264B
:1010A8000C964FF4F4730B9304250A9540F23522FD
:1010B80009920227089707930127069740F205230C
:1010C80005930B2704974FF4FA7303934FF00A081C
:1010D800CDF8088040F22A230193082700974FF49F
:1010E800F77307224FF47A7101F0E6FD4FF47A7036
:1010F80000F0C0FC0F94CDF838B0CDF834A0CDF88E
:1011080030900E210B910D210A910C2309930B238A
:101118000893CDF81C8009220692059707230493AB
:1011280006230393029601950323009302230122C9
:101138000021204601F018FE64E112240F944FF0BC
:10114800110BCDF838B010230D934FF00F09CDF8DF
:1011580030900E220B920D210A910C2609960B2035
:1011680008900A2507954FF00908CDF81880082738
:1011780005974FF0070CCDF810C0062503954FF0E2
:10118800050ECDF808E04FF0040ACDF804A00327B7
:101198000097022301220021204601F0E5FD4FF4CB
:1011A800497315931A2314934FF4FA7ACDF84CA087
:1011B8001923129340F23B131193182310934FF401
:1011C800F0730F9317230E934FF453730D93162355
:1011D8000C934FF4D2730B9315230A934FF40873AF
:1011E80009931E23089340F23A2307931D2306937D
:1011F8004FF4307305931C23049340F21723039391
:101208001B23029340F2293301931423009340F2E5
:10121800F91313225146304601F04EFD504600F0B6
:1012280029FC40F212230993089440F253230793B0
:10123800CDF8189040F20D23059304954FF41673DA
:101248000393029740F25D2301930096DB23424605
:101258004FF47A71284601F02FFD4FF47A7000F0B0
:1012680009FC0F94CDF838B010230D93CDF83090C9
:101278000E220B920D210A9109960B2008900A2341
:101288000793CDF81880082305934FF0070CCDF885
:1012980010C003954FF0050ECDF808E04FF0040A92
:1012A800CDF804A00097022301220021204601F076
:1012B8005BFDA7E00CF051FDA4E00CF0B2FCA1E04E
:1012C8000CF0FDFC9EE00CF0B6FA9BE00CF093FDF0
:1012D80098E00CF075FB95E00CF0EFFD92E00CF057
:1012E8000BFF8FE01E201B901D231A931C231993BC
:1012F8001B2318931A23179319231693182315934E
:10130800172314931623139315231293142311935D
:101318001323109312230F9311230E9310230D936D
:101328000F230C930E230B930D230A930C2309937D
:101338000B2308930A23079309230693082305938D
:10134800072304930623039305230293042301939D
:101358000323009302230122002101F005FD9C4B89
:1013680000221A804EE001229A4B1A609A4B1A60AA
:101378001E201B901D231A931C2319931B231893BB
:101388001A231793192316931823159317231493C5
:1013980016231393152312931423119313231093D5
:1013A80012230F9311230E9310230D930F230C93E5
:1013B8000E230B930D230A930C2309930B230893F5
:1013C8000A23079309230693082305930723049305
:1013D8000623039305230293042301930323009315
:1013E8000223002101F004FD7A4B1B681BB17A4BE4
:1013F8001B68002BF8D1794932A801F039FD744BEC
:1014080000221A80724B1B88013B6E2BFAD801A26E
:1014180052F823F0EB0B0008F30B0008FB0B000855
:10142800030C00080B0C0008110C0008170C00082E
:101438001D0C0008230C0008290C00083F0C0008AC
:10144800570C00086F0C0008870C00089F0C000858
:10145800B70C0008C90C0008DB0C0008ED0C0008EC
:10146800FF0C0008110D0008230D0008290D0008C5
:101478002F0D0008550D0008EB0E0008F10E0008AE
:10148800F70E0008C50F0008CB0F0008D10F0008A1
:10149800DB0F0008BD12000843110008C312000842
:1014A800C91200080D140008CF120008D512000850
:1014B800DB120008E1120008E7120008ED1200082C
:1014C8000D1400080D1400080D1400080D14000870
:1014D8000D1400080D1400080D1400080D14000860
:1014E8000D1400080D1400080D1400080D14000850
:1014F8000D1400080D1400080D1400080D14000840
:101508000D1400080D1400080D1400080D1400082F
:101518000D1400080D1400080D1400080D1400081F
:101528000D1400080D1400080D1400080D1400080F
:101538000D1400080D1400080D1400080D140008FF
:101548000D1400080D1400080D1400080D140008EF
:101558000D1400080D1400080D1400080D140008DF
:101568000D1400080D1400080D1400080D140008CF
:101578000D1400080D1400080D1400080D140008BF
:101588000D1400080D1400080D1400080D140008AF
:101598000D1400080D1400080D1400080D1400089F
:1015A8000D1400080D1400080D1400080D1400088F
:1015B8000D1400080D1400080D1400080D1400087F
:1015C8000D1400080D140008ED1200086F13000830
:1015D80034070020580A00205C0A00206805002013
:1015E80082B00E4B9A6942F001029A619A6902F040
:1015F80001020092009ADA6942F08052DA61DB69EE
:1016080003F080530193019B054A536823F0E0637C
:1016180043F00073536002B0704700BF00100240EF
:101628000000014030B58FB000230A930B930C9350
:101638000D9303686D4A93420BD06D4A934241D093
:101648006C4A934270D06C4A934200F09D800FB070
:1016580030BD6A4BDA6942F48012DA61DA6902F461
:1016680080120192019A9A6942F010029A619A696D
:1016780002F010020292029A9A6942F020029A61DC
:101688009B6903F020030393039B4FF480530A9351
:1016980002230B9303230D930AA9594800F040FB3A
:1016A80004230A9300240B940C940AA9554800F0CB
:1016B80037FB22462146352000F002FA352000F09B
:1016C80037FAC4E74D4B9A6942F480429A619A69A5
:1016D80002F480420492049A9A6942F004029A61E0
:1016E8009B6903F004030593059B4FF400730A9369
:1016F80002230B9303230D93434D0AA9284600F0B8
:101708000FFB4FF480630A9300240B940C940AA9EE
:10171800284600F005FB22462146252000F0D0F996
:10172800252000F005FA92E7344BDA6942F40032DA
:10173800DA61DA6902F400320692069A9A6942F08E
:1017480004029A619B6903F004030793079B04232F
:101758000A9302230B9303230D932B4D0AA92846C2
:1017680000F0DEFA08230A9300240B940C940AA9CB
:10177800284600F0D5FA22462146262000F0A0F996
:10178800262000F0D5F962E71C4BDA6942F4802282
:10179800DA61DA6902F480220892089A9A6942F0BA
:1017A80008029A619B6903F008030993099B4FF4A7
:1017B80080630A9302230B9303230D93134D0AA905
:1017C800284600F0ADFA4FF400630A9300240B9406
:1017D8000C940AA9284600F0A3FA2246214627209D
:1017E80000F06EF9272000F0A3F930E70050004020
:1017F800003801400044004000480040001002400A
:10180800001001400014014000080140000C014094
:10181800FEE7FEE7FEE7FEE7FEE770477047704722
:1018280008B500F015F908BD10B582B0104C204677
:1018380001F0FEF823681A6812F0100F03D0DA6876
:1018480012F0100F01D102B010BD002201921A68E7
:1018580001925B680193019B204601F031F805492C
:101868000A78054B1A806422204601F0FEF9EAE75F
:1018780058040020A40500203407002008B50248B9
:1018880001F0D6F808BD00BF240500200378552BC9
:1018980000D070474378552BFBD110B590F802E083
:1018A8000EF1020EC378152B11D010BDC25C00EBEF
:1018B800030C9CF801109CF80240013A41EA04210B
:1018C800044C24F8121003337345EFDBEDE70523CE
:1018D800FAE700BF6805002070B582B0124C2046B8
:1018E80001F0A6F823681A6812F0100F03D0DA681E
:1018F80012F0100F01D102B070BD002601961A68CF
:1019080001925B680193019B204600F0D9FF074DC7
:101918002846FFF7BBFF064B1E6064222946204677
:1019280001F0A3F9E7E700BF9C0400203807002076
:10193800580A002070B582B0124C204601F078F8A1
:1019480023681A6812F0100F03D0DA6812F0100F2B
:1019580001D102B070BD002601961A6801925B6839
:101968000193019B204600F0ABFF074D2846FFF787
:101978008DFF064B1E6064222946204601F075F94A
:10198800E7E700BFE0040020C80800205C0A002048
:10199800704770470C480D490D4A002302E0D4589F
:1019A800C4500433C4188C42F9D30A4A0A4C0023A1
:1019B80001E013600432A242FBD3FFF7EAFF0CF008
:1019C800BBFCFFF7B9F87047000000203C0400207A
:1019D80074E500083C040020F00A0020FEE700003F
:1019E80010B504460E4B18784FF47A73B3FBF0F336
:1019F8000C4A1068B0FBF3F000F0A8F868B90F2C97
:101A080001D901200AE0002221464FF0FF3000F002
:101A180057F8054B1C60002000E0012010BD00BFF6
:101A280004000020000000200800002008B5074A34
:101A3800136843F010031360032000F02FF80F2001
:101A4800FFF7CEFFFFF7CCFD002008BD00200240C5
:101A5800034A1168034B1B780B441360704700BF9F
:101A6800600A002004000020014B1868704700BF7E
:101A7800600A002038B50446FFF7F6FF0546B4F1C2
:101A8800FF3F02D0044B1B781C44FFF7EDFF401BBF
:101A9800A042FAD338BD00BF04000020074AD3682B
:101AA80023F4E0631B041B0C000200F4E060034312
:101AB80043F0BF6343F40033D360704700ED00E0A8
:101AC80000B5194BDB68C3F30223C3F1070CBCF163
:101AD800040F28BF4FF0040C03F1040EBEF1060FEB
:101AE80018D9033B4FF0FF3E0EFA0CFC21EA0C011B
:101AF80099400EFA03F322EA0303194300280BDB8B
:101B08000901C9B200F1604000F5614080F8001396
:101B18005DF804FB0023E5E700F00F000901C9B2F6
:101B2800024B1954F4E700BF00ED00E014ED00E0AB
:101B3800002807DB00F01F02400901239340024AF6
:101B480042F82030704700BF00E100E00138B0F1F2
:101B5800807F0BD24FF0E0235861054AF02182F8CC
:101B680023100020986107221A61704701207047EE
:101B780000ED00E090F82130022B06D004238363A7
:101B8800002380F82030012070470268136823F092
:101B98000E0313600268136823F001031360036CDB
:101BA800C16B012202FA03F34B6080F82120002365
:101BB80080F820301846704708B590F82130022B7D
:101BC80003D004238363012008BD0268136823F04F
:101BD8000E0313600268136823F00103136003689F
:101BE8004B4A93424ED9783A934224D014329342C6
:101BF80030D0143293422FD0143293422FD0143263
:101C080093422FD0143293422FD0143293422FD0C4
:101C180002F5627293422ED0143293422DD01432C0
:101C280093422CD01432934202D04FF4803203E016
:101C38004FF4805200E00122364B5A60012380F8AD
:101C48002130002380F82030436B002B5ED098476A
:101C58000020B9E71022EFE74FF48072ECE74FF469
:101C68008052E9E74FF48032E6E74FF48012E3E769
:101C78004FF08072E0E70122DEE71022DCE74FF444
:101C88008072D9E7244A934224D01432934225D053
:101C98001432934224D01432934224D01432934203
:101CA80024D01432934224D01432934224D002F523
:101CB8006272934223D01432934222D01432934258
:101CC80021D01432934202D04FF4803203E04FF413
:101CD800805200E00122114B5A60AFE71022FAE768
:101CE8004FF48072F7E74FF48052F4E74FF48032F4
:101CF800F1E74FF48012EEE74FF08072EBE7012234
:101D0800E9E71022E7E74FF48072E4E700205BE799
:101D18008000024000040240080002400000024027
:101D280070B582B00024A446B0E0874DAA4210D016
:101D380007D9864DAA420CD005F58035AA4208D0AD
:101D480013E0A5F58015AA4203D005F57025AA422F
:101D580007D18A68002A62D0012A5BD0436108242F
:101D680003E0A5F58015AA42F3D0BEF1FF0F58D8BD
:101D78000646BEF1FF0F56D84FEA8C0233680F258E
:101D8800954023EA050304FA02F2134333604B68D3
:101D980013F0805F78D06E4B9A6942F001029A6125
:101DA8009B6903F001030193019B4FEA9C02951C78
:101DB800684B53F825600CF003039D000F23AB40DC
:101DC80026EA0306644B984233D003F580639842B1
:101DD80000F0988003F58063984200F0958003F541
:101DE8008063984200F0928003F58063984200F087
:101DF8008F8003F58063984219D006231AE0CC68D7
:101E0800B3E7CC680434B0E7CC680834ADE7CC68F5
:101E18000C34AAE703610824A7E70024A5E70424F3
:101E2800A3E7061DA5E7ACF108029200A6E7052383
:101E380000E00023AB4033430232464D45F82230E0
:101E48004B6813F4803F65D0444A136843EA0E0395
:101E580013604B6813F4003F62D0404A536843EA6A
:101E68000E0353604B6813F4801F5FD03B4A93689E
:101E780043EA0E0393604B6813F4001F5CD0374AA3
:101E8800D36843EA0E03D3600CF1010C0A6832FAF6
:101E98000CF357D0012303FA0CF302EA030E33EADA
:101EA8000202F1D14A68122A3FF63FAF122A3FF6E2
:101EB8005CAF01A555F822F05B1D0008071E00085D
:101EC800111E0008231E0008731D0008731D00085A
:101ED800731D0008731D0008731D0008731D00089A
:101EE800731D0008731D0008731D0008731D00088A
:101EF800731D0008731D0008731D00080B1E0008E1
:101F0800171E0008012395E7022393E7032391E7AF
:101F180004238FE7114A136823EA0E03136098E736
:101F28000E4A536823EA0E0353609BE70B4A9368F3
:101F380023EA0E0393609EE7084AD36823EA0E0358
:101F4800D360A1E702B070BD00002210000031107C
:101F58000010024000000140000801400004014058
:101F680082B0084B1B68084AA2FB03235B0A00FBEC
:101F780003F3019300BF019B5A1E0192002BF9D174
:101F880002B0704700000020D34D6210002800F016
:101F9800F18170B582B00446036813F0010F2CD0AC
:101FA800994B5B6803F00C03042B1DD0964B5B68C0
:101FB80003F00C03082B12D06368B3F5803F41D0BF
:101FC800002B55D103F1804303F504331A6822F43A
:101FD80080321A601A6822F480221A6037E08A4B2D
:101FE8005B6813F4803FE7D0874B1B6813F4003F0E
:101FF80003D06368002B00F0BF81236813F0020F41
:1020080075D0814B5B6813F00C0F5FD07E4B5B681B
:1020180003F00C03082B54D02369002B00F08A80AE
:102028007A4B01221A60FFF71FFD0546764B1B68A5
:1020380013F0020F75D1FFF717FD401B0228F5D9E1
:1020480003209EE1704A136843F480331360636889
:1020580043B3FFF709FD05466B4B1B6813F4003FBC
:10206800CBD1FFF701FD401B6428F5D9032088E197
:10207800B3F5A02F09D0644B1A6822F480321A6095
:102088001A6822F480221A60E1E703F18043A3F57D
:102098003C331A6842F480221A601A6842F480328B
:1020A8001A60D4E7FFF7E0FC0546574B1B6813F4AA
:1020B800003FA2D0FFF7D8FC401B6428F5D90320C5
:1020C8005FE1514B5B6813F4803FA5D14E4B1B6811
:1020D80013F0020F03D02369012B40F04F814A4AC5
:1020E800136823F0F803616943EAC10313602368A6
:1020F80013F0080F33D0A369002B5CD0434B0122A7
:10210800C3F88024FFF7B0FC05463F4B5B6A13F029
:10211800020F21D1FFF7A8FC401B0228F5D90320A4
:102128002FE1394A136823F0F803616943EAC103D0
:102138001360DCE7354B00221A60FFF795FC054673
:10214800314B1B6813F0020FD1D0FFF78DFC401BF9
:102158000228F5D9032014E10120FFF701FF2368C5
:1021680013F0040F00F09680274BDB6913F0805FB3
:1021780034D1254BDA6942F08052DA61DB6903F029
:1021880080530193019B0125214B1B6813F4807F29
:1021980026D0E368012B3DD0002B53D103F18043B7
:1021A80003F504331A6A22F001021A621A6A22F04D
:1021B80004021A6233E0154B0022C3F88024FFF7AB
:1021C80053FC0546104B5B6A13F0020FC7D0FFF7AC
:1021D8004BFC401B0228F5D90320D2E00025D3E7A9
:1021E8000B4A136843F480731360FFF73DFC0646FF
:1021F800074B1B6813F4807FCBD1FFF735FC801B9E
:102208006428F5D90320BCE00010024000004242D7
:10221800007000405F4A136A43F001031362E368E9
:1022280033B3FFF721FC06465A4B1B6A13F0020F23
:102238002FD1FFF719FC801B41F288339842F3D95C
:1022480003209EE0052B09D0524B1A6A22F00102A6
:102258001A621A6A22F004021A62E0E74D4B1A6AFF
:1022680042F004021A621A6A42F001021A62D6E7C0
:10227800FFF7FAFB0646474B1B6A13F0020F08D01C
:10228800FFF7F2FB801B41F288339842F3D9032011
:1022980077E0E5B9E369002B72D03E4A526802F054
:1022A8000C02082A56D0022B17D03B4B00221A6684
:1022B800FFF7DAFB0446374B1B6813F0007F47D063
:1022C800FFF7D2FB001B0228F5D9032059E0314A59
:1022D800D36923F08053D361DCE72F4B00221A66C1
:1022E800FFF7C2FB05462B4B1B6813F0007F06D097
:1022F800FFF7BAFB401B0228F5D9032041E0236A07
:10230800B3F5803F1AD023494B6823F47413226A2B
:10231800606A024313434B601F4B01221A66FFF7A2
:10232800A3FB04461B4B1B6813F0007F0ED1FFF77D
:102338009BFB001B0228F5D9032022E0154A5368AD
:1023480023F40033A1680B435360DCE7002018E056
:10235800002016E0012B16D00E4B5B6803F4803189
:10236800226A914211D103F47013626A93420ED12A
:10237800002006E001207047012002E0012000E073
:10238800002002B070BD0120FBE70120F9E7012021
:10239800F7E700BF001002400000424286B0174B2A
:1023A8000FCB0DF1180C0CE90F0040F20123ADF82A
:1023B8000430134B5B6803F00C02082A02D0114862
:1023C80006B07047C3F3834218326A4412F8100CFF
:1023D80013F4803F0DD00A4B5B68C3F340431833B6
:1023E8006B4413F8143C074A02FB00F0B0FBF3F00F
:1023F800E6E7054B03FB00F0E2E700BF50E5000805
:102408000010024000127A0000093D00002800F088
:10241800A08070B50D460446524B1B6803F00703B5
:102428008B420BD24F4A136823F007030B43136008
:10243800136803F007038B4240F08D80236813F084
:10244800020F17D013F0040F04D0474A536843F41F
:10245800E0635360236813F0080F04D0424A5368BE
:1024680043F460535360404A536823F0F003A16873
:102478000B435360236813F0010F31D06368012BBD
:1024880020D0022B25D0384A126812F0020F64D0EF
:1024980035494A6822F0030213434B60FFF7E4FA18
:1024A8000646314B5B6803F00C036268B3EB820F9E
:1024B80016D0FFF7D9FA801B41F288339842F0D939
:1024C800032045E0284A126812F4003FE0D10120B9
:1024D8003EE0254A126812F0007FD9D1012037E08A
:1024E800204B1B6803F00703AB420AD91D4A136847
:1024F80023F007032B431360136803F00703AB4271
:102508002DD1236813F0040F06D0174A536823F41B
:10251800E063E1680B435360236813F0080F07D0AA
:10252800114A536823F46053216943EAC103536095
:10253800FFF734FF0C4B5B68C3F303130B4AD35C00
:10254800D8400B4B18600B4B1868FFF749FA00206E
:1025580070BD012070470120FAE70120F8E701204B
:10256800F6E700BF002002400010024038E50008EE
:102578000000002008000020014B1868704700BFC9
:102588000000002008B5FFF7F7FF044B5B68C3F3B2
:102598000223034AD35CD84008BD00BF00100240A4
:1025A80048E5000808B5FFF7E7FF044B5B68C3F38D
:1025B800C223034AD35CD84008BD00BF00100240C4
:1025C80048E500080268D36823F49073D360026872
:1025D800536923F001035361036B012B05D02023BA
:1025E80080F83E300023036370470268D36823F005
:1025F8001003D360F3E790F83D30DBB2212B01D014
:10260800022070478368B3F5805F17D0036A5A1CAD
:1026180002621A7803685A60C38C9BB2013B9BB272
:10262800C3844BB90268D36823F08003D36002687F
:10263800D36843F04003D360002070470369002B40
:10264800E4D1036A1B880268C3F308035360036A72
:1026580002330362E0E7000010B50446026813691C
:1026680023F44053C1680B43136183680269134321
:1026780042691A430168CB6823F4B05323F00C0372
:102688001343CB600268536923F4407381690B4399
:1026980053610268134B9A4220D0FFF773FF02463A
:1026A80002EB820202EB820263689B00B2FBF3F248
:1026B8000D48A0FB02314909642303FB11231B01C8
:1026C8003233A0FB03235B0903F0F00202EB011293
:1026D80003F00F03216813448B6010BDFFF762FFFE
:1026E8000246DDE7003801401F85EB512DE9F8432C
:1026F80005460F4616469946DDF820802C68246862
:1027080037EA04030CBF4FF0010C4FF0000CB4453E
:102718001FD1B8F1FF3FF1D0B8F1000F05D0FFF796
:10272800A3F9A0EB09004045E8D92A68D36823F447
:10273800D073D3602A68536923F0010353612023BF
:1027480085F83D3085F83E30002385F83C3003207D
:1027580000E00020BDE8F88358B310B5044690F8AF
:102768003D300BB3242384F83D302268D36823F42A
:102778000053D3602046FFF76FFF2268136923F4E4
:10278800904313612268536923F02A035361226836
:10279800D36843F40053D36000202064202384F8D6
:1027A8003D3084F83E3010BD80F83C30FEF73AFFEB
:1027B800D8E7012070472DE9F04182B01E4690F815
:1027C8003D30DBB2202B54D104460D4690460029FB
:1027D80053D0002A53D090F83C30012B51D001231C
:1027E80080F83C3000230364212380F83D30FFF754
:1027F8003BF90746A4F82480A4F82680A368B3F51B
:10280800805F05D04FF00008002384F83C3012E0C8
:10281800236913B14FF00008F6E7A8460025F3E74F
:1028280038F8023B2268C3F308035360E28C92B283
:10283800013A92B2E284E38C9BB273B100963B46B4
:10284800002280212046FFF751FFE0B9002DE7D094
:1028580015F8012B23685A60E8E700963B460022EA
:1028680040212046FFF742FF78B9202384F83D3005
:1028780000E0022002B0BDE8F0810120FAE7012063
:10288800F8E70220F6E70320F4E70320F2E77047B1
:1028980008B50168CA6822F04002CA60202280F8A0
:1028A8003D20FFF7F4FF002008BD704708B5406AD7
:1028B8000023C385C384FFF7F8FF08BD70470000F5
:1028C80010B504460268D36823F49073D360026895
:1028D800536923F001035361036B012B14D0236860
:1028E8005A6912F0400F1FD05A6922F040025A610B
:1028F800A36B7BB1124A5A63A06BFFF75DF9E0B195
:10290800A06B436B984718E00268D36823F0100364
:10291800D360E4E70023E385202284F83E20236384
:102928002046FFF7CBFF08E00023E385202284F848
:102938003E2023632046FFF7C1FF002010BD00BFE3
:102948004D29000808B5406A0023C385202280F875
:102958003E200363FFF7B2FF08BD704790F83E3092
:10296800DBB2222B60D18368B3F5805F46D0826AE0
:10297800B3F5805F04D0002B4DD10369002B4AD1F9
:1029880003685B681370836A01338362C38D9BB2EB
:10299800013B9BB2C385002B48D100B583B00268C8
:1029A800D36823F02003D3600268D36823F48073CC
:1029B800D3600268536923F001035361202380F830
:1029C8003E30036B012B2CD1002303630268D368CC
:1029D80023F01003D36003681A6812F0100F06D0B2
:1029E800002201921A6801925B680193019B818D14
:1029F800FFF7B3FF002003B05DF804FB0269002A6B
:102A0800B5D1826A03685B68C3F308031380836ADD
:102A180002338362BAE703685B6803F07F031370CD
:102A2800B1E7FEF7B5FFE5E70220704700207047E1
:102A380030B583B0044602681368D068516913F052
:102A48000F0505D113F0200F02D010F0200F19D177
:102A58002DB111F0010119D110F4907F16D1216B1D
:102A6800012975D013F0800F03D010F0800F40F0CB
:102A7800D78013F0400F03D010F0400F40F0D480FF
:102A880003B030BD2046FFF769FFF9E713F0010FE7
:102A980006D010F4807F03D0226C42F00102226439
:102AA80013F0040F04D019B1226C42F00202226420
:102AB80013F0020F04D019B1226C42F00402226410
:102AC80013F0080F07D010F0200F00D119B1226CB5
:102AD80042F008022264226C002AD1D013F0200FA1
:102AE80002D010F0200F21D123685B6903F0400366
:102AF800226C12F0080F00D123B32046FFF762FDC5
:102B080023685A6912F0400F18D05A6922F040021F
:102B18005A61A36B73B1464A5A63A06BFFF74CF82E
:102B28000028ADD0A06B436B9847A9E72046FFF774
:102B380015FFD9E72046FFF7B8FEA1E72046FFF7C3
:102B4800B4FE9DE72046FFF7B0FE0023236497E715
:102B580013F0100F86D010F0100F83D000230193CC
:102B68001368019353680193019B536913F0400F55
:102B780032D0A16B0B685B689BB2002B80D0A08D14
:102B880098427FF67DAFE3858B69202B08D1A18D14
:102B9800E38D9BB2C91A89B22046FFF7DEFE6FE7C4
:102BA800D36823F48073D3602268536923F0010348
:102BB80053612268536923F040035361202384F84A
:102BC8003E30002323632268D36823F01003D360C8
:102BD800A06BFEF7CFFFDAE7A18DE38D9BB2C91A90
:102BE80089B2E38D9BB2002B3FF44AAF00293FF432
:102BF80047AFD36823F49073D3602268536923F0F6
:102C080001035361202384F83E30002323632268A4
:102C1800D36823F01003D3602046FFF79EFE2FE70A
:102C28002046FFF7E8FC2BE72046FFF731FE27E7B1
:102C3800B5280008034681628285C2850020186491
:102C4800222283F83E2083F83C001968CA6842F4BF
:102C58008072CA6019684A6942F001024A611A68BA
:102C6800D36843F02003D360704708B590F83E302E
:102C7800DBB2202B0DD171B17AB190F83C30012B29
:102C88000DD0012380F83C3000230363FFF7D2FF07
:102C980000E0022008BD0120FCE70120FAE702203D
:102CA800F8E70000024B1860024B1960704700BF3C
:102CB800E40A0020E80A00200EB430B582B005AB63
:102CC80033F8042B0193431EDBB21F2B41D8234B4F
:102CD80055215970197000EB400105319970032195
:102CE800D97018715A71120A9A714FF0000E0723A1
:102CF8001AE001990A1D019203F1010C5FFA8CFC9C
:102D08000D78164CE55401F1080201924A68991CA5
:102D1800C9B204F80C200333DBB2C2F307226254B1
:102D28000EF101025FFA82FE8645E2D30B4CA278CF
:102D38004FF0FF330232214609480068FFF73BFD98
:102D4800A2784FF0FF330232214606480068FFF7A9
:102D580032FD02B0BDE8304003B07047640A00207D
:102D6800E40A0020E80A00200EB410B583B006ABD0
:102D78000193431EDBB21F2B2ED81A4B55225A70D3
:102D88001A70C21C9A701422DA7018710023052276
:102D98000DE001990C1D019402F1010C91F800E07D
:102DA800104901F802E00133DBB25FFA8CF283428A
:102DB800EFD30C4CA2784FF0FF33023221460A4879
:102DC8000068FFF7F8FCA2784FF0FF330232214683
:102DD80006480068FFF7EFFC03B0BDE8104003B0F9
:102DE800704700BF640A0020E40A0020E80A0020B7
:102DF8000EB410B583B01B4B55221A705A70C21C02
:102E08009A701522DA70187106AB01930023052217
:102E18000DE001990C1D019402F1010C91F800E0FC
:102E2800104901F802E00133DBB25FFA8CF2834209
:102E3800EFD30C4CA2784FF47A73023221460A4839
:102E48000068FFF7B8FCA2784FF0FF330232214642
:102E580006480068FFF7AFFC03B0BDE8104003B0B8
:102E6800704700BF640A0020E40A0020E80A002036
:102E7800F8B507460E46002413E036F81400A0F50E
:102E8800F070FDF71FFBBEA3D3E90023FDF7AEFCEE
:102E980007EBC4040022CC4BFDF77EFBC4E900011C
:102EA8002C461D2C00F3A682651C1D2CF8D801A306
:102EB80053F824F0832E0008352F00085D2F0008F2
:102EC800852F0008AD2F0008D52F0008FD2F00081A
:102ED800253000084B300008733000089B3000088C
:102EE800C3300008E9300008113100083931000802
:102EF8005F310008D9310008013200082732000884
:102F08004F320008773200089F320008C5320008A7
:102F1800ED320008153300083D330008633300081C
:102F280089330008B1330008D733000836F8140095
:102F3800A0F51070FDF7C6FA93A3D3E90023FDF7B7
:102F480055FC07EBC40400229F4BFDF725FBC4E9A1
:102F58000001A5E736F81400A0F5DF70FDF7B2FA16
:102F68008BA3D3E90023FDF741FC07EBC40400223F
:102F7800954BFDF711FBC4E9000191E736F8140001
:102F8800A0F5F470FDF79EFA7DA3D3E90023FDF7C1
:102F98002DFC07EBC40400228B4BFDF7FDFAC4E9B6
:102FA80000017DE736F81400A0F22B20FDF78AFA1D
:102FB80079A3D3E90023FDF719FC07EBC404002229
:102FC800814BFDF7E9FAC4E9000169E736F8140016
:102FD800A0F2E910FDF776FA71A3D3E90023FDF713
:102FE80005FC07EBC4040022774BFDF7D5FAC4E9CA
:102FF800000155E736F81400A0F5F770FDF762FAFE
:103008005FA3D3E90023FDF7F1FB07EBC40400221B
:103018006D4BFDF7C1FAC4E9000141E736F8140029
:10302800A0F27320FDF74EFA0022684BFDF7DEFB95
:1030380007EBC4040022644BFDF7AEFAC4E90001B3
:103048002EE736F81400A0F21B20FDF73BFA56A332
:10305800D3E90023FDF7CAFB07EBC40400225A4B4F
:10306800FDF79AFAC4E900011AE736F81400A0F54A
:10307800FA70FDF727FA42A3D3E90023FDF7B6FB60
:1030880007EBC4040022504BFDF786FAC4E900019F
:1030980006E736F81400A0F23A20FDF713FA44A325
:1030A800D3E90023FDF7A2FB07EBC4040022464B3B
:1030B800FDF772FAC4E90001F2E636F81400543854
:1030C800FDF700FA3CA3D3E90023FDF78FFB07EBDC
:1030D800C40400223C4BFDF75FFAC4E90001DFE6B7
:1030E80036F81400A0F5DA70FDF7ECF924A3D3E95B
:1030F8000023FDF77BFB07EBC4040022324BFDF7EE
:103108004BFAC4E90001CBE636F81400A0F23F20E0
:10311800FDF7D8F92AA3D3E90023FDF767FB07EBEE
:10312800C4040022284BFDF737FAC4E90001B7E6CA
:1031380036F81400CE38FDF7C5F91BA3D3E90023F0
:10314800FDF754FB07EBC40400221F4BFDF724FADC
:10315800C4E90001A4E636F81400A0F5F870FDF7FC
:10316800B1F907A3D3E90023FDF740FB07EBC4043B
:103178000022154BFDF710FAC4E9000190E600BFE4
:103188000000000000E077400000000000A075C0CB
:10319800000000000090764000000000002076C08B
:1031A8000000000000A077400000000000E075402B
:1031B80000000000002077C00000000000F075400B
:1031C8000000000000F076C000805640008076C005
:1031D80036F81400A0F23D20FDF774F986A3D3E970
:1031E8000023FDF703FB07EBC4040022944BFDF713
:1031F800D3F9C4E9000153E636F81400A0F52A70A3
:10320800FDF760F900228F4BFDF7F0FA07EBC404D5
:1032180000228B4BFDF7C0F9C4E9000140E636F8FF
:103228001400A0F2DF10FDF74DF975A3D3E90023D0
:10323800FDF7DCFA07EBC4040022814BFDF7ACF97B
:10324800C4E900012CE636F81400A0F5E970FDF792
:1032580039F96DA3D3E90023FDF7C8FA07EBC404D5
:103268000022774BFDF798F9C4E9000118E636F813
:103278001400A0F24E20FDF725F965A3D3E9002339
:10328800FDF7B4FA07EBC40400226D4BFDF784F98F
:10329800C4E9000104E636F81400A0F21E20FDF788
:1032A80011F90022684BFDF7A1FA07EBC4040022CC
:1032B800634BFDF771F9C4E90001F1E536F8140034
:1032C800A0F5FF70FDF7FEF853A3D3E90023FDF73F
:1032D8008DFA07EBC4040022594BFDF75DF9C4E9E8
:1032E8000001DDE536F81400A0F5C670FDF7EAF830
:1032F8004BA3D3E90023FDF779FA07EBC4040022B6
:103308004F4BFDF749F9C4E90001C9E536F8140047
:10331800A0F24720FDF7D6F843A3D3E90023FDF731
:1033280065FA07EBC4040022454BFDF735F9C4E9FB
:103338000001B5E536F814008338FDF7C3F83CA35F
:10334800D3E90023FDF752FA07EBC40400223C4BF3
:10335800FDF722F9C4E90001A2E536F81400A0F24D
:103368006920FDF7AFF80022384BFDF73FFA07EB6D
:10337800C4040022324BFDF70FF9C4E900018FE5C0
:1033880036F81400A0F50770FDF79CF82AA3D3E9D6
:103398000023FDF72BFA07EBC4040022284BFDF7A6
:1033A800FBF8C4E900017BE536F81400A0F22B20F5
:1033B800FDF788F80022264BFDF718FA07EBC4043E
:1033C80000221F4BFDF7E8F8C4E9000168E536F86C
:1033D8001400A0F58B70FDF775F800221D4BFDF762
:1033E80005FA07EBC4040022154BFDF7D5F8C4E92C
:1033F800000155E5F8BD00BF00000000004077C09F
:1034080000000000004076C00000000000E07740A7
:103418000000000000E076C00000000000307640A8
:1034280000000000009076C00000000000D076C0C8
:103438000000000000B07840000000000030774035
:103448000080564000807C4000407840000076C0F4
:1034580000C077C0008076402DE9F04FA3B040F25D
:10346800571321931225209540F2FB131F93112621
:103478001E964FF4F8721D9210231C9340F21913F4
:103488001B9309211A914FF400731993082018907F
:103498004FF4F7741794072416944FF4CC731593CC
:1034A8000F27149740F2DD1313934FF00E08CDF851
:1034B80048804FF4DA79CDF844904FF00D09CDF8F3
:1034C800409040F21F230F930C240E9440F22F2AB1
:1034D800CDF834A04FF00B0ACDF830A04FF4FA7BAA
:1034E800CDF82CB04FF00A0BCDF828B04FF4A973E3
:1034F8000993062708974FF4E378CDF81C804FF01E
:103508000508CDF818804FF4F47CCDF814C04FF0BE
:103518000409CDF8109040F21A2303934FF0030BDF
:10352800CDF808B040F25F2301934FF0020ACDF8BE
:1035380000A06346012221462846FFF7BDFB20462E
:10354800FEF798FA40F267132193209540F2FF1393
:103558001F931E9640F2E7161D9610221C9240F209
:10356800451CCDF86CC009211A9140F22F20199002
:103578000820189040F2FD1ECDF85CE04FF0070CD3
:10358800CDF858C04FF4C37315934FF00F0ECDF814
:1035980050E040F2D71313930E2312934FF4D672D0
:1035A80011920D22109240F202210F910E944FF4C5
:1035B80001730D934FF00B0CCDF830C040F2EB1EA9
:1035C800CDF82CE04FF00A0ECDF828E040F2511368
:1035D800099308974FF4E3710791CDF8188040F2EA
:1035E800F7110591CDF8109040F2DF130393CDF851
:1035F80008B04FF40B730193CDF800A04FF4F073AB
:10360800012221462846FFF757FB2046FEF732FAEB
:103618004FF4BA732193209540F202231F9311238C
:103628001E934FF4EF7CCDF874C010221C9240F228
:1036380099101B9009211A9140F27E2019900820B8
:10364800189040F20D2317934FF0070CCDF858C08F
:1036580040F2711315934FF00F0ECDF850E040F281
:10366800CF1313930E23129340F2A51311930D2237
:10367800109240F2BF130F930E9440F2B9130D93BA
:103688004FF00B0CCDF830C04FF4F17ECDF82CE0A4
:103698004FF00A0ECDF828E040F24F1CCDF824C0B8
:1036A800089740F2C5130793CDF8188040F2072316
:1036B8000593CDF810904FF4BB730393CDF808B081
:1036C8004FF4EA7CCDF804C0CDF800A04FF4ED73B8
:1036D800012221462846FFF7EFFA2046FEF7CAF9ED
:1036E80040F2B7132193209540F24D231F931123E5
:1036F8001E931D9610221C9240F297161B960921C4
:103708001A9140F27D2619960820189040F2FD1E65
:10371800CDF85CE04FF0070CCDF858C04FF4ED73CE
:1037280015934FF00F0ECDF850E040F22723139376
:103738000E2312934FF4D67211920D2210924FF469
:10374800D9700F900E944FF4DB730D934FF00B0C60
:10375800CDF830C040F2EB1ECDF82CE04FF00A0E49
:10376800CDF828E040F2A313099308974FF40572A7
:103778000792CDF8188040F2F7110591CDF8109016
:1037880040F28B130393CDF808B04FF4EE73019316
:10379800CDF800A04FF4F073012221462846FFF728
:1037A8008BFA2046FEF766F94FF4EA7ECDF884E0FE
:1037B80020954FF41E731F9311231E934FF4F87135
:1037C8001D9110221C924FF4CB731B9309211A915F
:1037D8001996082018904FF4F77117914FF0070CBD
:1037E800CDF858C040F2152315934FF00F0ECDF8C1
:1037F80050E040F25A2313930E2312934FF4DA71D8
:1038080011910D2210924FF4D1730F930E944FF42F
:10381800D97ECDF834E04FF00B0CCDF830C04FF422
:10382800FA710B914FF00A0ECDF828E040F2CF1153
:103838000991089740F243230793CDF818804FF475
:10384800F47CCDF814C0CDF8109040F29D1303938A
:10385800CDF808B04FF4F17ECDF804E0CDF800A023
:103868006346012221462846FFF726FA2046FEF73E
:1038780001F940F299102190209540F245231F93B9
:1038880011231E9340F2F7111D9110221C9240F251
:1038980097111B9109211A911996082018904FF435
:1038A800EF7617964FF0070CCDF858C04FF4FC731D
:1038B80015934FF00F0ECDF850E040F22F261396D7
:1038C8000E2612964FF4DE7611960D2210924FF4C2
:1038D800C8730F930E944FF4D6720D924FF00B0CE1
:1038E800CDF830C040F2FB100B904FF00A0ECDF827
:1038F80028E040F2A31CCDF824C008974FF4057CBB
:10390800CDF81CC0CDF818804FF4EC7CCDF814C06D
:10391800CDF8109040F2AD130393CDF808B04FF4F2
:10392800F3730193CDF800A04FF4F87301222146F8
:103938002846FFF7C1F92046FEF79CF84FF4987324
:103948002193209540F2ED131F9311231E934FF4FA
:10395800FF731D9310221C9240F299101B900921AD
:103968001A9140F27E221992082018904FF4E773BA
:1039780017934FF0070CCDF858C040F2B5131593C4
:103988004FF00F0ECDF850E04FF4F27213920E2361
:10399800129340F2C51011900D22109240F27B1341
:1039A8000F930E944FF4D2730D934FF00B0CCDF888
:1039B80030C040F202220B924FF00A0ECDF828E0F8
:1039C80040F24F12099208970790CDF818804FF4EB
:1039D800E4730593CDF810904FF4DD730393CDF89D
:1039E80008B040F2E9130193CDF800A040F2F913B2
:1039F800012221462846FFF75FF92046FEF73AF8EC
:103A080040F245102190209540F2F5131F931123A1
:103A18001E9340F2F7131D9310221C921B9009214C
:103A28001A9140F22F211991082018904FF4EF7144
:103A380017914FF0070CCDF858C04FF4D473159375
:103A48004FF00F0ECDF850E040F2E11313930E2320
:103A5800129311960D2210924FF4F2720F920E9457
:103A68004FF4FE730D934FF00B0CCDF830C040F2BD
:103A7800FB100B904FF00A0ECDF828E040F25113DE
:103A8800099308974FF4E3710791CDF818804FF424
:103A9800EC7CCDF814C0CDF8109040F2FD1ECDF8A6
:103AA8000CE0CDF808B04FF40D730193CDF800A0E9
:103AB8004FF4F873012221462846FFF7FDF8204607
:103AC800FDF7D8FF23B0BDE8F08F2DE9F04FA3B084
:103AD80040F2451121911225209540F2F5131F93CC
:103AE80011231E9340F2F7121D9210221C921B9173
:103AF80009211A9140F22F201990082018904FF4AC
:103B0800EF741794072416944FF4D47315930F2663
:103B1800149640F2E11313930E2712974FF4DE78B0
:103B2800CDF844804FF00D08CDF840804FF4F2797D
:103B3800CDF83C900C240E944FF4FE730D934FF087
:103B48000B09CDF8309040F2FB1ACDF82CA00A26CC
:103B58000A9640F2511BCDF824B04FF0060BCDF871
:103B680020B04FF4E37707974FF00509CDF8189088
:103B78004FF4EC7ACDF814A04FF00408CDF810807B
:103B880040F2FD1ACDF80CA0032702974FF40D73ED
:103B980001934FF0020ACDF800A04FF4F873012208
:103BA80021462846FFF788F82046FDF763FF4FF4C3
:103BB80098732193209540F2ED131F9311231E93C0
:103BC8004FF4FF731D9310221C9240F2991CCDF8FC
:103BD8006CC009211A9140F27E2ECDF864E00820CD
:103BE80018904FF4E77317934FF0070CCDF858C0AF
:103BF80040F2B51315934FF00F0ECDF850E04FF487
:103C0800F27ECDF84CE04FF00E0CCDF848C040F2F3
:103C1800C51211924FF00D0ECDF840E040F27B1323
:103C28000F930E944FF4D2730D930B230C9340F221
:103C3800022ECDF82CE00A9640F24F130993CDF8E6
:103C480020B00792CDF818904FF4E4730593CDF89F
:103C580010804FF4DD730393029740F2E913019348
:103C6800CDF800A040F2F913012221462846FFF7BB
:103C780023F82046FDF7FEFE40F299132193209584
:103C880040F245231F9311231E9340F2F7121D9211
:103C980010221C9240F297101B9009211A9140F2B1
:103CA8007D201990082018904FF4EF7CCDF85CC067
:103CB8004FF0070CCDF858C04FF4FC7315934FF034
:103CC8000F0ECDF850E040F22F2013904FF00E0C5D
:103CD800CDF848C04FF4DE7111914FF00D0ECDF8BC
:103CE80040E04FF4C8730F930E944FF4D6710D91C2
:103CF8000B230C9340F2FB1ECDF82CE00A9640F201
:103D0800A3110991CDF820B04FF4057ECDF81CE041
:103D1800CDF818904FF4EC7CCDF814C0CDF8108095
:103D280040F2AD13039302974FF4F3730193CDF868
:103D380000A04FF4F873012221462846FEF7BCFF85
:103D48002046FDF797FE4FF4EA73219320954FF430
:103D58001E731F9311231E934FF4F87CCDF874C083
:103D680010221C924FF4CB731B9309211A9140F235
:103D78007D201990082018904FF4F77117914FF093
:103D8800070CCDF858C040F2152315934FF00F0ECD
:103D9800CDF850E040F25A2313934FF00E0CCDF8B3
:103DA80048C04FF4DA7ECDF844E04FF00D0ECDF860
:103DB80040E04FF4D1730F930E944FF4D9710D91E5
:103DC8000B230C934FF4FA7CCDF82CC00A9640F2E2
:103DD800CF1ECDF824E0CDF820B040F2432307935E
:103DE800CDF818904FF4F4710591CDF8108040F299
:103DF8009D13039302974FF4F1700190CDF800A042
:103E08000B46012221462846FEF756FF2046FDF7BD
:103E180031FE40F2B7132193209540F24D231F93B2
:103E280011231E9340F2E7131D9310221C9240F2B7
:103E380097121B9209211A9140F27D2019900820AF
:103E4800189040F2FD1017904FF0070CCDF858C0AD
:103E58004FF4ED7015904FF00F0ECDF850E040F292
:103E6800272313934FF00E0CCDF848C04FF4D670AB
:103E780011904FF00D0ECDF840E04FF4D9700F902F
:103E88000E944FF4DB730D930B230C9340F2EB105D
:103E98000B900A9640F2A3120992CDF820B04FF485
:103EA80005720792CDF8189040F2F7120592CDF8F6
:103EB800108040F28B13039302974FF4EE73019333
:103EC800CDF800A04FF4F073012221462846FEF7F2
:103ED800F3FE2046FDF7CEFD4FF4BA7321932095EB
:103EE80040F2022ECDF87CE011231E934FF4EF7CB4
:103EF800CDF874C010221C9240F299131B9309212B
:103F08001A9140F27E2CCDF864C00820189040F237
:103F18000D2317934FF0070CCDF858C040F27113DA
:103F280015934FF00F0ECDF850E040F2CF1ECDF8AC
:103F38004CE04FF00E0CCDF848C040F2A513119399
:103F48004FF00D0ECDF840E040F2BF130F930E94E2
:103F580040F2B9130D930B230C934FF4F1700B90AF
:103F68000A9640F24F1CCDF824C0CDF820B040F29C
:103F7800C5130793CDF8189040F207230593CDF8A1
:103F880010804FF4BB73039302974FF4EA730193C5
:103F9800CDF800A04FF4ED73012221462846FEF724
:103FA8008BFE2046FDF766FD40F2671321932095AE
:103FB80040F2FF131F9311231E9340F2E7131D9342
:103FC80010221C9240F245111B9109211A9140F2CE
:103FD8002F2019900820189040F2FD1117914FF0EA
:103FE800070CCDF858C04FF4C37315934FF00F0E5C
:103FF800CDF850E040F2D71313934FF00E0CCDF8E4
:1040080048C04FF4D67011904FF00D0ECDF840E037
:1040180040F202210F910E944FF401730D930B237C
:104028000C9340F2EB100B900A9640F25111099153
:10403800CDF820B04FF4E3710791CDF8189040F215
:10404800F7120592CDF8108040F2DF130393029720
:104058004FF40B730193CDF800A04FF4F0730122D5
:1040680021462846FEF728FE2046FDF703FD40F2CC
:1040780057132193209540F2FB121F9211231E9390
:104088004FF4F8731D9310221C9240F219131B93DE
:1040980009211A914FF400731993082018904FF4CE
:1040A800F77217924FF0070CCDF858C04FF4CC7345
:1040B80015934FF00F0ECDF850E040F2DD13139337
:1040C8004FF00E0CCDF848C04FF4DA7211924FF051
:1040D8000D0ECDF840E040F21F230F930E9440F2EE
:1040E8002F200D900B230C934FF4FA7CCDF82CC0A5
:1040F8000A964FF4A9730993CDF820B04FF4E371F1
:104108000791CDF818904FF4F4710591CDF810800F
:1041180040F21A230393029740F25F230193CDF8EC
:1041280000A00B46012221462846FEF7C5FD204681
:10413800FDF7A0FC23B0BDE8F08F2DE9F04FA3B048
:1041480040F2571321931225209540F2FB131F9339
:1041580011231E934FF4F8721D9210221C9240F204
:1041680053131B9309211A9140F23D2319930820F8
:1041780018904FF4F7741794072416944FF4CC73DF
:1041880015930F26149640F2DD1313930E271297FA
:104198004FF4DA78CDF844804FF00D08CDF8408020
:1041A80040F2E519CDF83C900C240E944FF4F973C5
:1041B8000D934FF00B09CDF830904FF4FA7ACDF803
:1041C8002CA04FF00A09CDF828904FF4A973099351
:1041D8004FF00608CDF820804FF4E37ACDF81CA004
:1041E800052706974FF4F47BCDF814B04FF0040A76
:1041F800CDF810A04FF4F07603964FF0030BCDF8EE
:1042080008B040F222230193022600964FF4F4737B
:10421800012221462846FEF74FFD2046FDF72AFCDD
:1042280040F267132193209540F2FF131F93112347
:104238001E9340F2E7101D9010221C924FF4AE7EA0
:10424800CDF86CE009211A9140F2452CCDF864C0F4
:104258000820189040F2FD1ECDF85CE04FF0070CE6
:10426800CDF858C04FF4C37315934FF00F0ECDF827
:1042780050E040F2D71313934FF00E0CCDF848C01E
:104288004FF4D67ECDF844E04FF00D0ECDF840E067
:104298004FF4F6730F930E9440F2ED120D920B2328
:1042A8000C9340F2EB120B92CDF8289040F251118A
:1042B8000991CDF820804FF4E3720792069740F2F7
:1042C800F7120592CDF810A04FF4E47CCDF80CC09D
:1042D800CDF808B040F21523019300964FF4F0731F
:1042E800012221462846FEF7E7FC2046FDF7C2FBDF
:1042F8004FF4BA732193209540F2022CCDF87CC07C
:1043080011231E934FF4EF7CCDF874C010221C9239
:1043180040F299111B9109211A9140F27E201990BF
:104328000820189040F20D2317934FF0070CCDF892
:1043380058C040F2711315934FF00F0ECDF850E0AE
:1043480040F2CF1313934FF00E0CCDF848C040F253
:10435800A51311934FF00D0ECDF840E040F2BF13B6
:104368000F930E9440F2B9130D930B230C934FF453
:10437800F1710B91CDF8289040F24F120992CDF8C7
:10438800208040F2C5110791069740F20723059354
:10439800CDF810A04FF4BB730393CDF808B04FF4D9
:1043A800EA73019300964FF4ED73012221462846E3
:1043B800FEF782FC2046FDF75DFB40F2A113219336
:1043C800209540F236231F9311231E9340F2E710E5
:1043D8001D9010221C9240F297121B9209211A91EB
:1043E80040F27D2ECDF864E00820189040F2FD10D0
:1043F80017904FF0070CCDF858C040F2C31315932F
:104408004FF00F0ECDF850E04FF4047313934FF0B4
:104418000E0CCDF848C04FF4D67111914FF00D0E27
:10442800CDF840E04FF4D9700F900E944FF4DB7341
:104438000D930B230C9340F2EB100B90CDF82890C2
:104448004FF4C6700990CDF820804FF4FF700790A4
:10445800069740F2F7120592CDF810A040F28B13A0
:104468000393CDF808B04FF4EE73019300964FF420
:10447800F073012221462846FEF71EFC2046FDF770
:10448800F9FA4FF4CD732193209540F23B231F9303
:1044980011231E934FF4F8731D9310221C924FF4AE
:1044A800CB731B9309211A9140F27D2ECDF864E05D
:1044B800082018904FF4F77317934FF0070CCDF8B6
:1044C80058C040F2DB1315934FF00F0ECDF850E0B3
:1044D80040F21D2213924FF00E0CCDF848C04FF455
:1044E800DA7311934FF00D0ECDF840E04FF4D1730D
:1044F8000F930E944FF4D9720D920B230C934FF433
:10450800FA730B93CDF8289040F295130993CDF8E0
:10451800208040F20623079306974FF4F47305931F
:10452800CDF810A040F29D130393CDF808B04FF4D6
:10453800F170019000964FF4F47301222146284649
:10454800FEF7BAFB2046FDF795FA4FF4C1732193A5
:10455800209540F22E231F9311231E9340F2F71249
:104568001D9210221C9240F297131B9309211A9155
:1045780040F27D2ECDF864E0082018904FF4EF7CCF
:10458800CDF85CC04FF0070CCDF858C04FF4F1706F
:1045980015904FF00F0ECDF850E04FF406731393BB
:1045A8004FF00E0CCDF848C04FF4DE7311934FF066
:1045B8000D0ECDF840E04FF4C8730F930E944FF4EE
:1045C800D6710D910B230C9340F2FB110B91CDF892
:1045D80028904FF4C6730993CDF820804FF4FF70EC
:1045E800079006974FF4EC730593CDF810A040F2AE
:1045F800AD130393CDF808B04FF4F373019300960D
:104608004FF4F873012221462846FEF755FB204651
:10461800FDF730FA4FF498732193209540F2ED1E80
:10462800CDF87CE011231E934FF4FF701D901022EB
:104638001C9240F2991ECDF86CE009211A9140F2C3
:104648007E2ECDF864E0082018904FF4E773179396
:104658004FF0070CCDF858C040F2B51315934FF042
:104668000F0ECDF850E04FF4F27313934FF00E0C89
:10467800CDF848C040F2C51111914FF00D0ECDF89C
:1046880040E040F27B130F930E944FF4D2730D93D6
:104698000B230C9340F202200B90CDF8289040F2A7
:1046A8004F100990CDF82080079106974FF4E470D9
:1046B8000590CDF810A04FF4DD730393CDF808B042
:1046C80040F2E9130193009640F2F91301222146C2
:1046D8002846FEF7F1FA2046FDF7CCF940F24513DB
:1046E8002193209540F2F5131F9311231E9340F256
:1046F800F7121D9210221C924FF4AE731B930921DE
:104708001A9140F245211991082018904FF4EF7240
:1047180017924FF0070CCDF858C04FF4D473159387
:104728004FF00F0ECDF850E040F2E11313934FF025
:104738000E0CCDF848C04FF4DE7CCDF844C04FF0E5
:104748000D0ECDF840E040F2CD130F930E9440F2D9
:10475800E51CCDF834C00B230C9340F2FB110B91F0
:10476800CDF8289040F251110991CDF820804FF4EE
:10477800E372079206974FF4EC730593CDF810A0F7
:1047880040F2E7100390CDF808B040F21D220192E4
:1047980000964FF4F873012221462846FEF78CFA5A
:1047A8002046FDF767F923B0BDE8F08F2DE9F04FFB
:1047B800A3B040F2451321931225209540F2F5133A
:1047C8001F9311231E9340F2F7121D9210221C9280
:1047D8004FF4AE711B9109211A9140F245201990AE
:1047E800082018904FF4EF741794072416944FF488
:1047F800D47315930F26149640F2E11313930E27E2
:1048080012974FF4DE78CDF844804FF00D08CDF8BC
:10481800408040F2CD130F930C240E9440F2E5191A
:10482800CDF834904FF00B09CDF8309040F2FB1AD8
:10483800CDF82CA04FF00A0BCDF828B040F2511655
:1048480009964FF00609CDF820904FF4E3760796C5
:104858004FF0050ACDF818A04FF4EC7705974FF004
:104868000408CDF8108040F2E71703970327029752
:1048780040F21D2CCDF804C0022600964FF4F873C0
:10488800012221462846FEF717FA2046FDF7F2F8DE
:104898004FF498732193209540F2ED1ECDF87CE0FB
:1048A80011231E934FF4FF7CCDF874C010221C9284
:1048B80040F299131B9309211A9140F27E2ECDF8EC
:1048C80064E0082018904FF4E77317934FF0070C33
:1048D800CDF858C040F2B51315934FF00F0ECDF830
:1048E80050E04FF4F27313934FF00E0CCDF848C01C
:1048F80040F2C51E7246CDF844E04FF00D0ECDF8DB
:1049080040E040F27B130F930E944FF4D2730D9353
:104918000B230C9340F202230B93CDF828B040F2FE
:104928004F100990CDF820900792CDF818A04FF4B9
:10493800E4710591CDF810804FF4DD73039302976D
:1049480040F2E9130193009640F2F913012221463F
:104958002846FEF7B1F92046FDF78CF84FF4C173ED
:104968002193209540F22E231F9311231E9340F28A
:10497800F7121D9210221C9240F297101B900921E9
:104988001A9140F27D2ECDF864E0082018904FF47B
:10499800EF7117914FF0070CCDF858C04FF4F17331
:1049A80015934FF00F0ECDF850E04FF406731393A4
:1049B8004FF00E0CCDF848C04FF4DE7ECDF844E041
:1049C8004FF00D0ECDF840E04FF4C8730F930E94DE
:1049D8004FF4D6700D900B230C9340F2FB100B9004
:1049E800CDF828B04FF4C6720992CDF820904FF454
:1049F800FF7CCDF81CC0CDF818A04FF4EC730593DC
:104A0800CDF8108040F2AD13039302974FF4F3737F
:104A1800019300964FF4F873012221462846FEF7C9
:104A28004BF92046FDF726F84FF4CD7321932095D6
:104A380040F23B231F9311231E934FF4F8711D91ED
:104A480010221C924FF4CB731B9309211A9140F248
:104A58007D2ECDF864E0082018904FF4F772179275
:104A68004FF0070CCDF858C040F2DB1315934FF008
:104A78000F0ECDF850E040F21D2CCDF84CC04FF091
:104A88000E0CCDF848C04FF4DA7CCDF844C04FF096
:104A98000D0ECDF840E04FF4D1730F930E944FF400
:104AA800D9710D910B230C934FF4FA730B93CDF836
:104AB80028B040F295130993CDF8209040F20623D0
:104AC8000793CDF818A04FF4F4720592CDF8108032
:104AD80040F29D13039302974FF4F17301930096EC
:104AE8001346012221462846FEF7E6F82046FCF741
:104AF800C1FF40F2A1132193209540F236231F9362
:104B080011231E9340F2E7101D9010221C9240F2D0
:104B180097101B9009211A9140F27D2ECDF864E080
:104B28000820189040F2FD1ECDF85CE04FF0070C0D
:104B3800CDF858C040F2C31315934FF00F0ECDF8BF
:104B480050E04FF4047313934FF00E0CCDF848C0A7
:104B58004FF4D67ECDF844E04FF00D0ECDF840E08E
:104B68004FF4D97ECDF83CE00E944FF4DB730D93EF
:104B78000B230C9340F2EB1ECDF82CE0CDF828B0B7
:104B88004FF4C6700990CDF820904FF4FF7CCDF813
:104B98001CC0CDF818A040F2F7120592CDF810808D
:104BA80040F28B13039302974FF4EE730193009630
:104BB8004FF4F073012221462846FEF77DF820467F
:104BC800FCF758FF4FF4BA732193209540F2022C5A
:104BD800CDF87CC011231E934FF4EF711D91102264
:104BE8001C9240F2991CCDF86CC009211A9140F230
:104BF8007E2CCDF864C00820189040F20D2317933E
:104C08004FF0070CCDF858C040F2711315934FF0D0
:104C18000F0ECDF850E040F2CF1313934FF00E0C67
:104C2800CDF848C040F2A51311934FF00D0ECDF802
:104C380040E040F2BF130F930E9440F2B9130D9366
:104C48000B230C934FF4F1730B93CDF828B040F27B
:104C58004F130993CDF8209040F2C5120792CDF872
:104C680018A040F207230593CDF810804FF4BB73CA
:104C7800039302974FF4EA73019300964FF4ED7390
:104C8800012221462846FEF717F82046FCF7F2FED7
:104C980040F267132193209540F2FF131F931123CD
:104CA8001E9340F2E7111D9110221C924FF4AE7131
:104CB8001B9109211A9140F245201990082018905B
:104CC80040F2FD1017904FF0070CCDF858C04FF484
:104CD800C37315934FF00F0ECDF850E040F2D71381
:104CE80013934FF00E0CCDF848C04FF4D6711191C4
:104CF8004FF00D0ECDF840E04FF4F6730F930E947D
:104D080040F2ED1ECDF834E00B230C9340F2EB1E7D
:104D1800CDF82CE0CDF828B040F251110991CDF82A
:104D280020904FF4E3710791CDF818A040F2F712E4
:104D38000592CDF810804FF4E4720392029740F286
:104D48001523019300964FF4F0730122214628465B
:104D5800FDF7B2FF2046FCF78DFE40F25713219372
:104D6800209540F2FB101F9011231E934FF4F87307
:104D78001D9310221C9240F253131B9309211A9180
:104D880040F23D231993082018904FF4F7701790BC
:104D98004FF0070CCDF858C04FF4CC7315934FF073
:104DA8000F0ECDF850E040F2DD1313934FF00E0CC8
:104DB800CDF848C04FF4DA7CCDF844C04FF00D0E62
:104DC800CDF840E040F2E5120F920E944FF4F973DB
:104DD8000D930B230C934FF4FA730B93CDF828B073
:104DE8004FF4A9730993CDF820904FF4E37107911C
:104DF800CDF818A04FF4F4720592CDF810804FF456
:104E0800F0730393029740F222230193009613460E
:104E1800012221462846FDF74FFF2046FCF72AFECF
:104E280023B0BDE8F08F2DE9F04FA3B040F237135F
:104E38002193122520954FF4EB721F9211271E978C
:104E480040F20B231D9310261C964FF4EE731B9310
:104E58004FF00909CDF8689040F2CE2319934FF02E
:104E6800080ACDF860A04FF4F77317934FF0070BBB
:104E7800CDF858B04FF4BC7315930F2314934FF427
:104E8800DC7313930E2212924FF4CC7111910D2101
:104E9800109140F2BF100F900C200E904FF4EC745C
:104EA8000D940B240C9440F2DD1CCDF82CC04FF06F
:104EB8000A0CCDF828C04FF4C47409944FF00608C2
:104EC800CDF8208040F20F230793052006904FF479
:104ED800F478CDF81480042404944FF4DD7303931C
:104EE8004FF0030CCDF808C04FF40278CDF80480D9
:104EF800022400944FF4FF73012221462846FDF74F
:104F0800DBFE2046FCF7B6FD40F22D1ECDF884E00E
:104F180020954FF4E5721F921E97CDF874801C9669
:104F280040F2DB131B93CDF868904FF43373199359
:104F3800CDF860A040F2E718CDF85C80CDF858B005
:104F480040F2831315930F23149340F2C513139360
:104F58000E22129240F2971ECDF844E00D211091D6
:104F68004FF4E37ECDF83CE04FF00C0ECDF838E07E
:104F78004FF4F17CCDF834C00B200C904FF4F07353
:104F88000B934FF00A0CCDF828C040F28713099311
:104F98000623089340F20E230793052006904FF44A
:104FA800F67205924FF0040ECDF810E040F2B112FF
:104FB80003924FF0030CCDF808C040F2FD130193A3
:104FC80000944FF40073012221462846FDF774FE31
:104FD8002046FCF74FFD4FF492712191209540F245
:104FE800BF121F921E9740F205231D931C9640F294
:104FF800D7121B92CDF868904FF432731993CDF8FD
:1050080060A04FF4F17CCDF85CC0CDF858B04FF4F7
:10501800C77315930F2314934FF4E97213920E225A
:10502800129240F2971011900D21109140F2CD127A
:105038000F920C210E9140F2EB1ECDF834E00B20BC
:105048000C9040F2E3100B904FF00A0ECDF828E0D8
:1050580040F2851309930623089340F20B2ECDF8EE
:105068001CE04FF0050CCDF818C04FF4F87ECDF8D1
:1050780014E04FF0040ECDF810E04FF4D47303930E
:105088004FF0030CCDF808C040F2F11301930094DF
:1050980040F20223012221462846FDF70DFE204654
:1050A800FCF7E8FC4FF48E702190209540F2B71180
:1050B8001F911E974FF4007CCDF874C01C9640F2E7
:1050C800D1101B90CDF8689040F2C1231993CDF808
:1050D80060A040F2DD1CCDF85CC0CDF858B040F2BD
:1050E800991315930F23149340F2DF1CCDF84CC08D
:1050F8000E22129240F2971CCDF844C00D20109059
:105108004FF4E97CCDF83CC00C210E914FF4F971B5
:105118000D910B220C92CDF82C804FF00A08CDF897
:1051280028804FF4C178CDF824800620089040F2FA
:10513800062307934FF00508CDF818804FF4FA7E40
:10514800CDF814E04FF0040ECDF810E04FF4CF7115
:1051580003914FF0030CCDF808C04FF4F27301939C
:10516800009440F20323012221462846FDF7A4FDBE
:105178002046FCF77FFC4FF48B71219120954FF46A
:10518800D8711F911E9740F2FB111D911C9640F299
:10519800C9131B93CDF8689040F2B9231993CDF841
:1051A80060A04FF4EC711791CDF858B040F2A311FC
:1051B80015910F2314934FF4F67313930E21129144
:1051C8004FF4CC7111910D20109040F2D5130F932C
:1051D8000C230E9340F2F71CCDF834C00B220C922E
:1051E80040F2EB1ECDF82CE04FF00A0ECDF828E087
:1051F80040F27D1309930620089040F2FF130793AD
:10520800CDF818804FF4FC7105914FF0040ECDF8DD
:1052180010E040F29318CDF80C804FF0030CCDF855
:1052280008C040F2D718CDF8048000944FF40173F9
:10523800012221462846FDF73FFD2046FCF71AFCCF
:105248004FF48978CDF8848020954FF4D678CDF83E
:105258007C801E974FF4FB731D931C964FF4E072ED
:105268001B92CDF8689040F2AE221992CDF860A05A
:1052780040F2D5101790CDF858B0CDF854800F22D1
:1052880014924FF4FC7ECDF84CE00E2112914FF4AD
:10529800CD7211920D20109040F2D7110F910C226F
:1052A8000E924FF4FD710D910B210C9140F2EF120B
:1052B8000B924FF00A0ECDF828E04FF4BB7209921A
:1052C8000620089007934FF0050CCDF818C040F25F
:1052D800FB1305934FF0040ECDF810E04FF4C470A3
:1052E8000390032302934FF4E5730193009440F273
:1052F8000323012221462846FDF7DEFC2046FCF761
:10530800B9FB40F21113219320954FF4D5731F93E5
:105318001E974FF4F8731D931C964FF4DB731B9381
:10532800CDF8689040F2A2231993CDF860A04FF40D
:10533800E97CCDF85CC0CDF858B040F2B5131593B0
:105348000F22149240F2032313930E21129140F27C
:105358009D1311930D2010904FF4EC7CCDF83CC0B8
:105368000C220E9240F2FB130D930B210C914FF47B
:10537800FA7ECDF82CE04FF00A0ECDF828E040F286
:105388006F130993062008904FF4F67ECDF81CE0C1
:105398004FF0050CCDF818C04FF4FF7305934FF08C
:1053A800040ECDF810E040F27D130393032302931B
:1053B80040F2BD130193009440F2022301222146DA
:1053C8002846FDF779FC2046FCF754FB4FF4897317
:1053D80021932095CDF87C801E9740F2E9131D9308
:1053E8001C9640F2AB18CDF86C80CDF8689040F26E
:1053F80095231993CDF860A040F2D118CDF85C80C0
:10540800CDF858B04FF4DE7315930F22149240F282
:105418000D2313930E2112914FF4D078CDF84480C8
:105428000D20109040F2D7130F930C220E924FF4D8
:10543800FD730D930B210C914FF4FC7ECDF82CE0FD
:105448004FF00A0ECDF828E04FF4B3730993062005
:10545800089040F2E11307934FF0050CCDF818C0FF
:1054680040F2012305934FF0040ECDF810E040F20E
:10547800731303930323029340F2B1100190009435
:105488004FF40073012221462846FDF715FC2046FB
:10549800FCF7F0FA4FF48B72219220954FF4D872F2
:1054A8001F921E974FF4F2731D931C96CDF86C80D3
:1054B800CDF868904FF422731993CDF860A040F2AC
:1054C800D118CDF85C80CDF858B040F2C3131593CD
:1054D8004FF00F08CDF8508040F2162313930E2199
:1054E800129140F2A31211920D20109040F2D510A3
:1054F80084460F900C220E9240F2F7120D920B2365
:105508000C934FF4FE730B934FF00A0ECDF828E07E
:1055180040F25D12099206200890CDF81CC04FF0A9
:10552800050CCDF818C040F2032105914FF0040E88
:10553800CDF810E04FF4B5720392032202924FF4B3
:10554800D37201920094012221462846FDF7B4FB4C
:105558002046FCF78FFA4FF48E702190209540F288
:10556800B7101F901E9740F2DF101D901C9640F256
:1055780095131B93CDF8689040F27B231993CDF8CF
:1055880060A040F2D1111791CDF858B04FF4E473F0
:105598001593CDF8508040F21D2213920E211291DE
:1055A80040F2A71211920D2010904FF4E9710F915B
:1055B8000C220E924FF4F9700D904FF00B08CDF8B5
:1055C80030804FF40078CDF82C804FF00A0ECDF8DB
:1055D80028E040F2531209920620089007934FF0F2
:1055E800050CCDF818C04FF40178CDF814804FF0B1
:1055F800040ECDF810E04FF4B17303930322029226
:105608004FF4CF7CCDF804C000944FF4FC73012212
:1056180021462846FDF750FB2046FCF72BFA4FF4AD
:1056280092712191209540F2BF131F931E974FF45A
:10563800ED711D911C9640F28B131B93CDF8689069
:1056480040F26E231993CDF860A04FF4E9711791D9
:10565800CDF858B040F2CB1315930F23149340F2B2
:10566800222313930E21129140F2AB1011900D20BA
:10567800109040F2CD130F930C220E9240F2EB10D3
:105688000D900B210C91CDF82C804FF00A0ECDF81F
:1056980028E04FF4A47309930620089040F2BB1346
:1056A80007934FF0050CCDF818C0CDF814804FF0D3
:1056B800040ECDF810E04FF4AE7303930322029268
:1056C80040F2971CCDF804C0009440F2F313012275
:1056D80021462846FDF7F0FA2046FCF7CBF940F2C0
:1056E8002D10219020954FF4E57CCDF87CC01E97B5
:1056F80040F2D71CCDF874C01C964FF4C17CCDF88D
:105708006CC0CDF8689040F262231993CDF860A080
:105718004FF4EA701790CDF858B040F2CD131593B6
:105728000F23149340F2252313930E21129140F274
:10573800AF1311930D2010904FF4E37ECDF83CE0A9
:105748000C230E934FF4F1720D920B210C9140F241
:1057580007230B934FF00A0ECDF828E040F23D13D3
:105768000993062008904FF4D77307934FF0050C60
:10577800CDF818C0CDF814804FF0040ECDF810E025
:105788004FF4AC7303930322029240F29318CDF8BE
:105798000480009440F2ED13012221462846FDF7CB
:1057A8008BFA2046FCF766F940F23718CDF884806A
:1057B80020954FF4EB78CDF87C801E974FF4EA7073
:1057C8001D901C9640F279131B93CDF8689040F217
:1057D80057231993CDF860A040F2D718CDF85C8014
:1057E800CDF858B04FF4E77315934FF00F08CDF884
:1057F800508040F2262313930E2112914FF4DA734E
:1058080011930D20109040F2BF120F920C230E93AB
:105818004FF4EC720D920B230C9340F20A230B9376
:105828004FF00A0ECDF828E04FF499730993062338
:10583800089340F2A11307934FF0050CCDF818C058
:1058480040F2032305934FF0040ECDF810E040F228
:10585800571303930322029240F291130193009489
:105868004FF4F473012221462846FDF725FA204615
:10587800FCF700F94FF4A1732193209540F2E3154A
:105888001F951E9740F2D3131D931C964FF4B973BE
:105898001B93CDF8689040F24D231993CDF860A082
:1058A8004FF4ED771797CDF858B040F2CD14159412
:1058B800CDF8508040F2252313930E2112914FF416
:1058C800DC7711970D2010904FF4DB730F934FF096
:1058D8000C09CDF838900D940B270C9740F20D2B3E
:1058E800CDF82CB04FF00A0ACDF828A04FF4947BDD
:1058F800CDF824B04FF0060BCDF820B040F2951447
:1059080007944FF0050CCDF818C04FF400730593B9
:105918004FF0040ECDF810E04FF4AC760396032256
:10592800029240F293150195022400944FF4F1730A
:10593800012221461220FDF7BFF92046FCF79AF80C
:1059480040F24D132193122520954FF4F8731F93BD
:1059580011231E9340F2D3111D9110221C9240F284
:105968006B111B9109211A914FF411731993082394
:10597800189340F2DD1317930722169240F2CB1EBC
:10598800CDF854E0CDF8508040F2222313930E2135
:1059980012914FF4DE7011900D20109040F2AD136B
:1059A8000F93CDF8389040F2C11ECDF834E00C9733
:1059B80040F20F200B90CDF828A040F21F1ECDF822
:1059C80024E0CDF820B04FF4C57007904FF0050CD7
:1059D800CDF818C040F2FD1005904FF0040ECDF838
:1059E80010E04FF4AE7303930322029240F2971330
:1059F800019300944FF4EE73012221462846FDF7E7
:105A08005BF92046FCF736F82196209540F2FD1602
:105A18001F9611261E9640F2D3161D9610261C9628
:105A28004FF4B3721B9209211A9140F23D2119914A
:105A38000826189640F2E1131793072616964FF496
:105A4800E4731593CDF8508040F21D2313930E2173
:105A580012914FF4E07311930D20109040F2A316A9
:105A68000F96CDF838904FF4DA730D930C974FF4E6
:105A780004760B96CDF828A040F21718CDF82480AC
:105A8800CDF820B04FF4C17CCDF81CC04FF0050C08
:105A9800CDF818C04FF4FC7305934FF0040ECDF801
:105AA80010E04FF4B178CDF80C80032202924FF445
:105AB800CF7CCDF804C0009440F2D71301222146D0
:105AC8002846FDF7F9F82046FBF7D4FFCDF8848087
